{
  "contractName": "Fauceteer",
  "abi": [
    {
      "constant": false,
      "inputs": [
        {
          "internalType": "contract EIP20NonStandardInterface",
          "name": "token",
          "type": "address"
        }
      ],
      "name": "drip",
      "outputs": [],
      "payable": false,
      "stateMutability": "nonpayable",
      "type": "function"
    }
  ],
  "bytecode": "0x608060405234801561001057600080fd5b50610381806100206000396000f3fe608060405234801561001057600080fd5b5060043610610048576000357c01000000000000000000000000000000000000000000000000000000009004806367a5cd061461004d575b600080fd5b61008f6004803603602081101561006357600080fd5b81019080803573ffffffffffffffffffffffffffffffffffffffff169060200190929190505050610091565b005b60008173ffffffffffffffffffffffffffffffffffffffff166370a08231306040518263ffffffff167c0100000000000000000000000000000000000000000000000000000000028152600401808273ffffffffffffffffffffffffffffffffffffffff1673ffffffffffffffffffffffffffffffffffffffff16815260200191505060206040518083038186803b15801561012c57600080fd5b505afa158015610140573d6000803e3d6000fd5b505050506040513d602081101561015657600080fd5b81019080805190602001909291905050509050600081116101df576040517f08c379a00000000000000000000000000000000000000000000000000000000081526004018080602001828103825260128152602001807f46617563657465657220697320656d707479000000000000000000000000000081525060200191505060405180910390fd5b8173ffffffffffffffffffffffffffffffffffffffff1663a9059cbb33612710848161020757fe5b046040518363ffffffff167c0100000000000000000000000000000000000000000000000000000000028152600401808373ffffffffffffffffffffffffffffffffffffffff1673ffffffffffffffffffffffffffffffffffffffff16815260200182815260200192505050600060405180830381600087803b15801561028d57600080fd5b505af11580156102a1573d6000803e3d6000fd5b5050505060003d600081146102bd57602081146102c757600080fd5b60001991506102d3565b60206000803e60005191505b5080610347576040517f08c379a00000000000000000000000000000000000000000000000000000000081526004018080602001828103825260188152602001807f5472616e736665722072657475726e65642066616c73652e000000000000000081525060200191505060405180910390fd5b50505056fea265627a7a723158200cf65fb2d48e08efe398cea0b8fe905b6e56b239551ccd42a28526a6d7eaa59d64736f6c63430005100032",
  "source": "pragma solidity ^0.5.16;\n\nimport \"./EIP20NonStandardInterface.sol\";\n\n/**\n  * @title Fauceteer\n  * @author Compound\n  * @notice First computer program to be part of The Giving Pledge\n  */\ncontract Fauceteer {\n\n    /**\n      * @notice Drips some tokens to caller\n      * @dev We send 0.01% of our tokens to the caller. Over time, the amount will tend toward and eventually reach zero.\n      * @param token The token to drip. Note: if we have no balance in this token, function will revert.\n      */\n    function drip(EIP20NonStandardInterface token) public {\n        uint balance = token.balanceOf(address(this));\n        require(balance > 0, \"Fauceteer is empty\");\n        token.transfer(msg.sender, balance / 10000); // 0.01%\n\n        bool success;\n        assembly {\n            switch returndatasize()\n                case 0 {                       // This is a non-standard ERC-20\n                    success := not(0)          // set success to true\n                }\n                case 32 {                      // This is a compliant ERC-20\n                    returndatacopy(0, 0, 32)\n                    success := mload(0)        // Set `success = returndata` of external call\n                }\n                default {                      // This is an excessively non-compliant ERC-20, revert.\n                    revert(0, 0)\n                }\n        }\n\n        require(success, \"Transfer returned false.\");\n    }\n}\n",
  "sourcePath": "/home/luiserebii/compound-test-tx/contracts/Fauceteer.sol",
  "compiler": {
    "name": "solc",
    "version": "0.5.16+commit.9c3226ce.Emscripten.clang"
  },
  "schemaVersion": "3.4.1",
  "updatedAt": "2021-08-13T03:21:18.287Z",
  "networkType": "ethereum",
  "devdoc": {
    "author": "Compound",
    "methods": {
      "drip(address)": {
        "details": "We send 0.01% of our tokens to the caller. Over time, the amount will tend toward and eventually reach zero.",
        "params": {
          "token": "The token to drip. Note: if we have no balance in this token, function will revert."
        }
      }
    },
    "title": "Fauceteer"
  },
  "userdoc": {
    "methods": {
      "drip(address)": {
        "notice": "Drips some tokens to caller"
      }
    },
    "notice": "First computer program to be part of The Giving Pledge"
  }
}